{"fileName":"Greeter.sol","contractName":"Greeter","source":"pragma solidity ^0.5.0;\n\nimport \"./IRelayRecipient.sol\";\nimport \"./GSNContext.sol\";\n\ncontract Greeter is IRelayRecipient, GSNContext {\n  address constant FAILS_PRE =  0x28a8746e75304c0780E011BEd21C72cD78cd535E;\n  address constant FAILS_POST = 0xACa94ef8bD5ffEE41947b4585a84BdA5a3d3DA6E;\n\n  event Greeted(address indexed greeter, string message);\n\n  function reverts() public {\n    emit Greeted(_msgSender(), \"Error\");\n    revert(\"GreetingError\");\n  }\n\n  function greet(string memory message) public payable {\n    emit Greeted(_msgSender(), message);\n  }\n\n  function acceptRelayedCall(\n      address,\n      address from,\n      bytes calldata,\n      uint256,\n      uint256,\n      uint256,\n      uint256,\n      bytes calldata,\n      uint256\n  ) external view returns (uint256, bytes memory) {\n    return (0, abi.encode(from));\n  }\n\n  function preRelayedCall(bytes calldata context) external returns (bytes32) { \n    address from = abi.decode(context, (address));\n    if (from == FAILS_PRE) revert(\"FailedPre\");\n  }\n\n  function postRelayedCall(bytes calldata context, bool, uint, bytes32) external { \n    address from = abi.decode(context, (address));\n    if (from == FAILS_POST) revert(\"FailedPost\");\n  }\n}","sourcePath":"contracts/Greeter.sol","abi":[{"constant":false,"inputs":[],"name":"reverts","outputs":[],"payable":false,"stateMutability":"nonpayable","type":"function"},{"constant":true,"inputs":[],"name":"getHubAddr","outputs":[{"name":"","type":"address"}],"payable":false,"stateMutability":"view","type":"function"},{"constant":false,"inputs":[{"name":"context","type":"bytes"}],"name":"preRelayedCall","outputs":[{"name":"","type":"bytes32"}],"payable":false,"stateMutability":"nonpayable","type":"function"},{"constant":true,"inputs":[{"name":"","type":"address"},{"name":"from","type":"address"},{"name":"","type":"bytes"},{"name":"","type":"uint256"},{"name":"","type":"uint256"},{"name":"","type":"uint256"},{"name":"","type":"uint256"},{"name":"","type":"bytes"},{"name":"","type":"uint256"}],"name":"acceptRelayedCall","outputs":[{"name":"","type":"uint256"},{"name":"","type":"bytes"}],"payable":false,"stateMutability":"view","type":"function"},{"constant":false,"inputs":[{"name":"context","type":"bytes"},{"name":"","type":"bool"},{"name":"","type":"uint256"},{"name":"","type":"bytes32"}],"name":"postRelayedCall","outputs":[],"payable":false,"stateMutability":"nonpayable","type":"function"},{"constant":false,"inputs":[{"name":"message","type":"string"}],"name":"greet","outputs":[],"payable":true,"stateMutability":"payable","type":"function"},{"anonymous":false,"inputs":[{"indexed":true,"name":"greeter","type":"address"},{"indexed":false,"name":"message","type":"string"}],"name":"Greeted","type":"event"}],"bytecode":"0x608060405273537f27a04470242ff6b2c3ad247a05248d0d27ce600060006101000a81548173ffffffffffffffffffffffffffffffffffffffff021916908373ffffffffffffffffffffffffffffffffffffffff1602179055503480156100665760006000fd5b5061006c565b610a5b8061007b6000396000f3fe6080604052600436106100595760003560e01c80633bccbbc91461005f57806374e861d61461007757806380274db7146100cf57806383947ea014610178578063e06e0e2214610353578063ead710c41461040457610059565b60006000fd5b34801561006c5760006000fd5b506100756104c7565b005b3480156100845760006000fd5b5061008d6105c9565b604051808273ffffffffffffffffffffffffffffffffffffffff1673ffffffffffffffffffffffffffffffffffffffff16815260200191505060405180910390f35b3480156100dc5760006000fd5b5061015a600480360360208110156100f45760006000fd5b81019080803590602001906401000000008111156101125760006000fd5b8201836020820111156101255760006000fd5b803590602001918460018302840111640100000000831117156101485760006000fd5b909192939090919293905050506105f8565b60405180826000191660001916815260200191505060405180910390f35b3480156101855760006000fd5b506102d0600480360361012081101561019e5760006000fd5b81019080803573ffffffffffffffffffffffffffffffffffffffff169060200190929190803573ffffffffffffffffffffffffffffffffffffffff169060200190929190803590602001906401000000008111156101fc5760006000fd5b82018360208201111561020f5760006000fd5b803590602001918460018302840111640100000000831117156102325760006000fd5b90919293909091929390803590602001909291908035906020019092919080359060200190929190803590602001909291908035906020019064010000000081111561027e5760006000fd5b8201836020820111156102915760006000fd5b803590602001918460018302840111640100000000831117156102b45760006000fd5b90919293909091929390803590602001909291905050506106f7565b6040518083815260200180602001828103825283818151815260200191508051906020019080838360005b838110156103175780820151818401525b6020810190506102fb565b50505050905090810190601f1680156103445780820380516001836020036101000a031916815260200191505b50935050505060405180910390f35b3480156103605760006000fd5b50610402600480360360808110156103785760006000fd5b81019080803590602001906401000000008111156103965760006000fd5b8201836020820111156103a95760006000fd5b803590602001918460018302840111640100000000831117156103cc5760006000fd5b90919293909091929390803515159060200190929190803590602001909291908035600019169060200190929190505050610765565b005b6104c56004803603602081101561041b5760006000fd5b81019080803590602001906401000000008111156104395760006000fd5b82018360208201111561044c5760006000fd5b8035906020019184600183028401116401000000008311171561046f5760006000fd5b91908080601f016020809104026020016040519081016040528093929190818152602001838380828437600081840152601f19601f82011690508083019250505050505050909091929090919290505050610863565b005b6104d561092863ffffffff16565b73ffffffffffffffffffffffffffffffffffffffff167faf3454daf35ed35aeed96f54dea42be40577a50924c122b26dc07fb3bf0c077e6040518080602001828103825260058152602001807f4572726f7200000000000000000000000000000000000000000000000000000081526020015060200191505060405180910390a26040517f08c379a000000000000000000000000000000000000000000000000000000000815260040180806020018281038252600d8152602001807f4772656574696e674572726f720000000000000000000000000000000000000081526020015060200191505060405180910390fd5b565b6000600060009054906101000a900473ffffffffffffffffffffffffffffffffffffffff1690506105f5565b90565b600060008383602081101561060d5760006000fd5b81019080803573ffffffffffffffffffffffffffffffffffffffff16906020019092919050505090507328a8746e75304c0780e011bed21c72cd78cd535e73ffffffffffffffffffffffffffffffffffffffff168173ffffffffffffffffffffffffffffffffffffffff1614156106ef576040517f08c379a00000000000000000000000000000000000000000000000000000000081526004018080602001828103825260098152602001807f4661696c6564507265000000000000000000000000000000000000000000000081526020015060200191505060405180910390fd5b505b92915050565b6000606060008c604051602001808273ffffffffffffffffffffffffffffffffffffffff1673ffffffffffffffffffffffffffffffffffffffff16815260200191505060405160208183030381529060405281915091509150610755565b9b509b9950505050505050505050565b6000858560208110156107785760006000fd5b81019080803573ffffffffffffffffffffffffffffffffffffffff169060200190929190505050905073aca94ef8bd5ffee41947b4585a84bda5a3d3da6e73ffffffffffffffffffffffffffffffffffffffff168173ffffffffffffffffffffffffffffffffffffffff16141561085a576040517f08c379a000000000000000000000000000000000000000000000000000000000815260040180806020018281038252600a8152602001807f4661696c6564506f73740000000000000000000000000000000000000000000081526020015060200191505060405180910390fd5b505b5050505050565b61087161092863ffffffff16565b73ffffffffffffffffffffffffffffffffffffffff167faf3454daf35ed35aeed96f54dea42be40577a50924c122b26dc07fb3bf0c077e826040518080602001828103825283818151815260200191508051906020019080838360005b838110156108ea5780820151818401525b6020810190506108ce565b50505050905090810190601f1680156109175780820380516001836020036101000a031916815260200191505b509250505060405180910390a25b50565b6000600060009054906101000a900473ffffffffffffffffffffffffffffffffffffffff1673ffffffffffffffffffffffffffffffffffffffff163373ffffffffffffffffffffffffffffffffffffffff1614151561098d573390506109a3566109a2565b61099b6109a663ffffffff16565b90506109a3565b5b90565b600060606000368080601f016020809104026020016040519081016040528093929190818152602001838380828437600081840152601f19601f82011690508083019250505050505050905060006000369050905073ffffffffffffffffffffffffffffffffffffffff818301511692508292505050610a235650505b9056fea265627a7a7230582042f93be1a1bf40a2d88f7972d01ce2f346c5f00c0ba1f8573a37257a430f59b764736f6c634300050a0032","compiler":{"name":"solc","version":"0.5.10+commit.5a6ea5b1.Linux.g++","optimizer":{},"evmVersion":"constantinople"}}