{"fileName":"Greeter.sol","contractName":"Greeter","source":"pragma solidity ^0.5.0;\n\nimport \"./IRelayRecipient.sol\";\nimport \"./GSNContext.sol\";\nimport \"./ECDSA.sol\";\n\ncontract VanillaGreeter {\n  event Greeted(address indexed greeter, string message);\n\n  function greet(string memory message) public payable {\n    emit Greeted(msg.sender, message);\n  }\n}\n\ncontract Greeter is IRelayRecipient, GSNContext, VanillaGreeter {\n  address constant FAILS_PRE =  0x28a8746e75304c0780E011BEd21C72cD78cd535E;\n  address constant FAILS_POST = 0xACa94ef8bD5ffEE41947b4585a84BdA5a3d3DA6E;\n\n  event PostGreet(address from, bytes approveData);\n\n  function greet(string memory message) public payable {\n    // Play around with msg data to increase gas consumption if sent as meta tx\n    bytes memory data = _msgData();\n    require(data.length > 0);\n\n    emit Greeted(_msgSender(), message);\n  }\n\n  function greetFrom(address sender, string memory message) public payable {\n    require(sender == _msgSender());\n    greet(message);\n  }\n\n  function reverts() public {\n    emit Greeted(_msgSender(), \"Error\");\n    revert(\"GreetingError\");\n  }\n\n  function acceptRelayedCall(\n      address,\n      address from,\n      bytes calldata,\n      uint256,\n      uint256,\n      uint256,\n      uint256,\n      bytes calldata approveData,\n      uint256\n  ) external view returns (uint256, bytes memory) {\n    return (0, abi.encode(from, approveData));\n  }\n\n  function preRelayedCall(bytes calldata context) external returns (bytes32) { \n    (address from,) = abi.decode(context, (address, bytes));\n    if (from == FAILS_PRE) revert(\"FailedPre\");\n  }\n\n  function postRelayedCall(bytes calldata context, bool, uint, bytes32) external { \n    (address from, bytes memory approveData) = abi.decode(context, (address, bytes));\n    if (from == FAILS_POST) revert(\"FailedPost\");\n    emit PostGreet(from, approveData);\n  }\n\n  function setHub(address hub) external {\n    _upgradeRelayHub(hub);\n  }\n}\n\ncontract RejectfulGreeter is Greeter {\n  function acceptRelayedCall(\n      address,\n      address,\n      bytes calldata,\n      uint256,\n      uint256,\n      uint256,\n      uint256,\n      bytes calldata,\n      uint256\n  ) external view returns (uint256, bytes memory) {\n    return (20, \"\");\n  }\n}\n\ncontract SignatureBouncerGreeter is Greeter {\n  using ECDSA for bytes32;\n\n  address public trustedSigner;\n  \n  constructor(address _trustedSigner) public {\n    trustedSigner = _trustedSigner;\n  }\n\n  function acceptRelayedCall(\n    address relay,\n    address from,\n    bytes calldata encodedFunction,\n    uint256 transactionFee,\n    uint256 gasPrice,\n    uint256 gasLimit,\n    uint256 nonce,\n    bytes calldata approvalData,\n    uint256\n  ) external view returns (uint256, bytes memory) {\n\n    bytes memory blob = abi.encodePacked(\n      relay,\n      from,\n      encodedFunction,\n      transactionFee,\n      gasPrice,\n      gasLimit,\n      nonce, // Prevents replays on RelayHub\n      getHubAddr(), // Prevents replays in multiple RelayHubs\n      address(this) // Prevents replays in multiple recipients\n    );\n    \n    if (keccak256(blob).toEthSignedMessageHash().recover(approvalData) == trustedSigner) {\n      return (0, abi.encode(from, approvalData));\n    } else {\n      return (20, abi.encode(from, approvalData));\n    }\n  }\n}","sourcePath":"contracts/Greeter.sol","abi":[{"constant":false,"inputs":[{"name":"hub","type":"address"}],"name":"setHub","outputs":[],"payable":false,"stateMutability":"nonpayable","type":"function"},{"constant":false,"inputs":[],"name":"reverts","outputs":[],"payable":false,"stateMutability":"nonpayable","type":"function"},{"constant":true,"inputs":[],"name":"getHubAddr","outputs":[{"name":"","type":"address"}],"payable":false,"stateMutability":"view","type":"function"},{"constant":false,"inputs":[{"name":"context","type":"bytes"}],"name":"preRelayedCall","outputs":[{"name":"","type":"bytes32"}],"payable":false,"stateMutability":"nonpayable","type":"function"},{"constant":true,"inputs":[{"name":"","type":"address"},{"name":"from","type":"address"},{"name":"","type":"bytes"},{"name":"","type":"uint256"},{"name":"","type":"uint256"},{"name":"","type":"uint256"},{"name":"","type":"uint256"},{"name":"approveData","type":"bytes"},{"name":"","type":"uint256"}],"name":"acceptRelayedCall","outputs":[{"name":"","type":"uint256"},{"name":"","type":"bytes"}],"payable":false,"stateMutability":"view","type":"function"},{"constant":false,"inputs":[{"name":"context","type":"bytes"},{"name":"","type":"bool"},{"name":"","type":"uint256"},{"name":"","type":"bytes32"}],"name":"postRelayedCall","outputs":[],"payable":false,"stateMutability":"nonpayable","type":"function"},{"constant":false,"inputs":[{"name":"message","type":"string"}],"name":"greet","outputs":[],"payable":true,"stateMutability":"payable","type":"function"},{"constant":false,"inputs":[{"name":"sender","type":"address"},{"name":"message","type":"string"}],"name":"greetFrom","outputs":[],"payable":true,"stateMutability":"payable","type":"function"},{"anonymous":false,"inputs":[{"indexed":false,"name":"from","type":"address"},{"indexed":false,"name":"approveData","type":"bytes"}],"name":"PostGreet","type":"event"},{"anonymous":false,"inputs":[{"indexed":true,"name":"greeter","type":"address"},{"indexed":false,"name":"message","type":"string"}],"name":"Greeted","type":"event"}],"bytecode":"0x608060405273d216153c06e857cd7f72665e0af1d7d82172f494600060006101000a81548173ffffffffffffffffffffffffffffffffffffffff021916908373ffffffffffffffffffffffffffffffffffffffff1602179055503480156100665760006000fd5b5061006c565b6110628061007b6000396000f3fe60806040526004361061007f5760003560e01c806383947ea01161004e57806383947ea0146101f1578063e06e0e22146103cc578063ead710c41461047d578063f728d280146105405761007f565b806331962cdc146100855780633bccbbc9146100d857806374e861d6146100f057806380274db7146101485761007f565b60006000fd5b3480156100925760006000fd5b506100d6600480360360208110156100aa5760006000fd5b81019080803573ffffffffffffffffffffffffffffffffffffffff169060200190929190505050610623565b005b3480156100e55760006000fd5b506100ee610636565b005b3480156100fd5760006000fd5b50610106610738565b604051808273ffffffffffffffffffffffffffffffffffffffff1673ffffffffffffffffffffffffffffffffffffffff16815260200191505060405180910390f35b3480156101555760006000fd5b506101d36004803603602081101561016d5760006000fd5b810190808035906020019064010000000081111561018b5760006000fd5b82018360208201111561019e5760006000fd5b803590602001918460018302840111640100000000831117156101c15760006000fd5b90919293909091929390505050610767565b60405180826000191660001916815260200191505060405180910390f35b3480156101fe5760006000fd5b5061034960048036036101208110156102175760006000fd5b81019080803573ffffffffffffffffffffffffffffffffffffffff169060200190929190803573ffffffffffffffffffffffffffffffffffffffff169060200190929190803590602001906401000000008111156102755760006000fd5b8201836020820111156102885760006000fd5b803590602001918460018302840111640100000000831117156102ab5760006000fd5b9091929390909192939080359060200190929190803590602001909291908035906020019092919080359060200190929190803590602001906401000000008111156102f75760006000fd5b82018360208201111561030a5760006000fd5b8035906020019184600183028401116401000000008311171561032d5760006000fd5b9091929390909192939080359060200190929190505050610905565b6040518083815260200180602001828103825283818151815260200191508051906020019080838360005b838110156103905780820151818401525b602081019050610374565b50505050905090810190601f1680156103bd5780820380516001836020036101000a031916815260200191505b50935050505060405180910390f35b3480156103d95760006000fd5b5061047b600480360360808110156103f15760006000fd5b810190808035906020019064010000000081111561040f5760006000fd5b8201836020820111156104225760006000fd5b803590602001918460018302840111640100000000831117156104455760006000fd5b909192939090919293908035151590602001909291908035906020019092919080356000191690602001909291905050506109a7565b005b61053e600480360360208110156104945760006000fd5b81019080803590602001906401000000008111156104b25760006000fd5b8201836020820111156104c55760006000fd5b803590602001918460018302840111640100000000831117156104e85760006000fd5b91908080601f016020809104026020016040519081016040528093929190818152602001838380828437600081840152601f19601f82011690508083019250505050505050909091929090919290505050610c19565b005b610621600480360360408110156105575760006000fd5b81019080803573ffffffffffffffffffffffffffffffffffffffff169060200190929190803590602001906401000000008111156105955760006000fd5b8201836020820111156105a85760006000fd5b803590602001918460018302840111640100000000831117156105cb5760006000fd5b91908080601f016020809104026020016040519081016040528093929190818152602001838380828437600081840152601f19601f82011690508083019250505050505050909091929090919290505050610d02565b005b61063281610d5e63ffffffff16565b5b50565b610644610da363ffffffff16565b73ffffffffffffffffffffffffffffffffffffffff167faf3454daf35ed35aeed96f54dea42be40577a50924c122b26dc07fb3bf0c077e6040518080602001828103825260058152602001807f4572726f7200000000000000000000000000000000000000000000000000000081526020015060200191505060405180910390a26040517f08c379a000000000000000000000000000000000000000000000000000000000815260040180806020018281038252600d8152602001807f4772656574696e674572726f720000000000000000000000000000000000000081526020015060200191505060405180910390fd5b565b6000600060009054906101000a900473ffffffffffffffffffffffffffffffffffffffff169050610764565b90565b600060008383604081101561077c5760006000fd5b81019080803573ffffffffffffffffffffffffffffffffffffffff169060200190929190803590602001906401000000008111156107ba5760006000fd5b8201836020820111156107cd5760006000fd5b803590602001918460018302840111640100000000831117156107f05760006000fd5b91908080601f016020809104026020016040519081016040528093929190818152602001838380828437600081840152601f19601f820116905080830192505050505050509090919290909192905050505090507328a8746e75304c0780e011bed21c72cd78cd535e73ffffffffffffffffffffffffffffffffffffffff168173ffffffffffffffffffffffffffffffffffffffff1614156108fd576040517f08c379a00000000000000000000000000000000000000000000000000000000081526004018080602001828103825260098152602001807f4661696c6564507265000000000000000000000000000000000000000000000081526020015060200191505060405180910390fd5b505b92915050565b6000606060008c8686604051602001808473ffffffffffffffffffffffffffffffffffffffff1673ffffffffffffffffffffffffffffffffffffffff168152602001806020018281038252848482818152602001925080828437600081840152601f19601f82011690508083019250505094505050505060405160208183030381529060405281915091509150610997565b9b509b9950505050505050505050565b60006060868660408110156109bc5760006000fd5b81019080803573ffffffffffffffffffffffffffffffffffffffff169060200190929190803590602001906401000000008111156109fa5760006000fd5b820183602082011115610a0d5760006000fd5b80359060200191846001830284011164010000000083111715610a305760006000fd5b91908080601f016020809104026020016040519081016040528093929190818152602001838380828437600081840152601f19601f820116905080830192505050505050509090919290909192905050509150915073aca94ef8bd5ffee41947b4585a84bda5a3d3da6e73ffffffffffffffffffffffffffffffffffffffff168273ffffffffffffffffffffffffffffffffffffffff161415610b3e576040517f08c379a000000000000000000000000000000000000000000000000000000000815260040180806020018281038252600a8152602001807f4661696c6564506f73740000000000000000000000000000000000000000000081526020015060200191505060405180910390fd5b7f767ed36f4b03636a167bef1da2f5a7e8c7c8fa91bc7f5258cfbab19e713534ac8282604051808373ffffffffffffffffffffffffffffffffffffffff1673ffffffffffffffffffffffffffffffffffffffff16815260200180602001828103825283818151815260200191508051906020019080838360005b83811015610bd45780820151818401525b602081019050610bb8565b50505050905090810190601f168015610c015780820380516001836020036101000a031916815260200191505b50935050505060405180910390a150505b5050505050565b6060610c29610e2163ffffffff16565b905060008151111515610c3c5760006000fd5b610c4a610da363ffffffff16565b73ffffffffffffffffffffffffffffffffffffffff167faf3454daf35ed35aeed96f54dea42be40577a50924c122b26dc07fb3bf0c077e836040518080602001828103825283818151815260200191508051906020019080838360005b83811015610cc35780820151818401525b602081019050610ca7565b50505050905090810190601f168015610cf05780820380516001836020036101000a031916815260200191505b509250505060405180910390a2505b50565b610d10610da363ffffffff16565b73ffffffffffffffffffffffffffffffffffffffff168273ffffffffffffffffffffffffffffffffffffffff16141515610d4a5760006000fd5b610d5981610c1963ffffffff16565b5b5050565b80600060006101000a81548173ffffffffffffffffffffffffffffffffffffffff021916908373ffffffffffffffffffffffffffffffffffffffff1602179055505b50565b6000600060009054906101000a900473ffffffffffffffffffffffffffffffffffffffff1673ffffffffffffffffffffffffffffffffffffffff163373ffffffffffffffffffffffffffffffffffffffff16141515610e0857339050610e1e56610e1d565b610e16610ee463ffffffff16565b9050610e1e565b5b90565b6060600060009054906101000a900473ffffffffffffffffffffffffffffffffffffffff1673ffffffffffffffffffffffffffffffffffffffff163373ffffffffffffffffffffffffffffffffffffffff16141515610ecb576000368080601f016020809104026020016040519081016040528093929190818152602001838380828437600081840152601f19601f820116905080830192505050505050509050610ee156610ee0565b610ed9610f6463ffffffff16565b9050610ee1565b5b90565b600060606000368080601f016020809104026020016040519081016040528093929190818152602001838380828437600081840152601f19601f82011690508083019250505050505050905060006000369050905073ffffffffffffffffffffffffffffffffffffffff818301511692508292505050610f615650505b90565b60606000601460003690500390506060816040519080825280601f01601f191660200182016040528015610fa75781602001600182028038833980820191505090505b5090506000600090505b8281101561101d57600036828181101515610fc857fe5b9050013560f81c60f81b8282815181101515610fe057fe5b60200101907effffffffffffffffffffffffffffffffffffffffffffffffffffffffffffff1916908160001a9053505b8060010190508050610fb1565b50809250505061102a5650505b9056fea265627a7a72305820034bf2ffa5892c6ab1dd598e4d89379073d9d18a4ce6e01637b3b30fee6737d664736f6c634300050a0032","compiler":{"name":"solc","version":"0.5.10+commit.5a6ea5b1.Linux.g++","optimizer":{},"evmVersion":"constantinople"}}