{"fileName":"Greeter.sol","contractName":"Greeter","source":"pragma solidity ^0.5.0;\n\nimport \"./IRelayRecipient.sol\";\nimport \"./GSNContext.sol\";\n\ncontract Greeter is IRelayRecipient, GSNContext {\n  address constant FAILS_PRE =  0x28a8746e75304c0780E011BEd21C72cD78cd535E;\n  address constant FAILS_POST = 0xACa94ef8bD5ffEE41947b4585a84BdA5a3d3DA6E;\n\n  event Greeted(address indexed greeter, string message);\n\n  function reverts() public {\n    emit Greeted(_msgSender(), \"Error\");\n    revert(\"GreetingError\");\n  }\n\n  function greet(string memory message) public {\n    emit Greeted(_msgSender(), message);\n  }\n\n  function acceptRelayedCall(\n      address,\n      address from,\n      bytes calldata,\n      uint256,\n      uint256,\n      uint256,\n      uint256,\n      bytes calldata,\n      uint256\n  ) external view returns (uint256, bytes memory) {\n    return (0, abi.encode(from));\n  }\n\n  function preRelayedCall(bytes calldata context) external returns (bytes32) { \n    address from = abi.decode(context, (address));\n    if (from == FAILS_PRE) revert(\"FailedPre\");\n  }\n\n  function postRelayedCall(bytes calldata context, bool, uint, bytes32) external { \n    address from = abi.decode(context, (address));\n    if (from == FAILS_POST) revert(\"FailedPost\");\n  }\n}","sourcePath":"contracts/Greeter.sol","abi":[{"constant":false,"inputs":[],"name":"reverts","outputs":[],"payable":false,"stateMutability":"nonpayable","type":"function"},{"constant":true,"inputs":[],"name":"getHubAddr","outputs":[{"name":"","type":"address"}],"payable":false,"stateMutability":"view","type":"function"},{"constant":false,"inputs":[{"name":"context","type":"bytes"}],"name":"preRelayedCall","outputs":[{"name":"","type":"bytes32"}],"payable":false,"stateMutability":"nonpayable","type":"function"},{"constant":true,"inputs":[{"name":"","type":"address"},{"name":"from","type":"address"},{"name":"","type":"bytes"},{"name":"","type":"uint256"},{"name":"","type":"uint256"},{"name":"","type":"uint256"},{"name":"","type":"uint256"},{"name":"","type":"bytes"},{"name":"","type":"uint256"}],"name":"acceptRelayedCall","outputs":[{"name":"","type":"uint256"},{"name":"","type":"bytes"}],"payable":false,"stateMutability":"view","type":"function"},{"constant":false,"inputs":[{"name":"context","type":"bytes"},{"name":"","type":"bool"},{"name":"","type":"uint256"},{"name":"","type":"bytes32"}],"name":"postRelayedCall","outputs":[],"payable":false,"stateMutability":"nonpayable","type":"function"},{"constant":false,"inputs":[{"name":"message","type":"string"}],"name":"greet","outputs":[],"payable":false,"stateMutability":"nonpayable","type":"function"},{"anonymous":false,"inputs":[{"indexed":true,"name":"greeter","type":"address"},{"indexed":false,"name":"message","type":"string"}],"name":"Greeted","type":"event"}],"bytecode":"0x608060405273537f27a04470242ff6b2c3ad247a05248d0d27ce600060006101000a81548173ffffffffffffffffffffffffffffffffffffffff021916908373ffffffffffffffffffffffffffffffffffffffff1602179055503480156100665760006000fd5b5061006c565b610a238061007b6000396000f3fe60806040523480156100115760006000fd5b50600436106100675760003560e01c80633bccbbc91461006d57806374e861d61461007757806380274db7146100c157806383947ea01461015c578063e06e0e2214610329578063ead710c4146103cc57610067565b60006000fd5b61007561048f565b005b61007f610591565b604051808273ffffffffffffffffffffffffffffffffffffffff1673ffffffffffffffffffffffffffffffffffffffff16815260200191505060405180910390f35b61013e600480360360208110156100d85760006000fd5b81019080803590602001906401000000008111156100f65760006000fd5b8201836020820111156101095760006000fd5b8035906020019184600183028401116401000000008311171561012c5760006000fd5b909192939090919293905050506105c0565b60405180826000191660001916815260200191505060405180910390f35b6102a660048036036101208110156101745760006000fd5b81019080803573ffffffffffffffffffffffffffffffffffffffff169060200190929190803573ffffffffffffffffffffffffffffffffffffffff169060200190929190803590602001906401000000008111156101d25760006000fd5b8201836020820111156101e55760006000fd5b803590602001918460018302840111640100000000831117156102085760006000fd5b9091929390909192939080359060200190929190803590602001909291908035906020019092919080359060200190929190803590602001906401000000008111156102545760006000fd5b8201836020820111156102675760006000fd5b8035906020019184600183028401116401000000008311171561028a5760006000fd5b90919293909091929390803590602001909291905050506106bf565b6040518083815260200180602001828103825283818151815260200191508051906020019080838360005b838110156102ed5780820151818401525b6020810190506102d1565b50505050905090810190601f16801561031a5780820380516001836020036101000a031916815260200191505b50935050505060405180910390f35b6103ca600480360360808110156103405760006000fd5b810190808035906020019064010000000081111561035e5760006000fd5b8201836020820111156103715760006000fd5b803590602001918460018302840111640100000000831117156103945760006000fd5b9091929390909192939080351515906020019092919080359060200190929190803560001916906020019092919050505061072d565b005b61048d600480360360208110156103e35760006000fd5b81019080803590602001906401000000008111156104015760006000fd5b8201836020820111156104145760006000fd5b803590602001918460018302840111640100000000831117156104375760006000fd5b91908080601f016020809104026020016040519081016040528093929190818152602001838380828437600081840152601f19601f8201169050808301925050505050505090909192909091929050505061082b565b005b61049d6108f063ffffffff16565b73ffffffffffffffffffffffffffffffffffffffff167faf3454daf35ed35aeed96f54dea42be40577a50924c122b26dc07fb3bf0c077e6040518080602001828103825260058152602001807f4572726f7200000000000000000000000000000000000000000000000000000081526020015060200191505060405180910390a26040517f08c379a000000000000000000000000000000000000000000000000000000000815260040180806020018281038252600d8152602001807f4772656574696e674572726f720000000000000000000000000000000000000081526020015060200191505060405180910390fd5b565b6000600060009054906101000a900473ffffffffffffffffffffffffffffffffffffffff1690506105bd565b90565b60006000838360208110156105d55760006000fd5b81019080803573ffffffffffffffffffffffffffffffffffffffff16906020019092919050505090507328a8746e75304c0780e011bed21c72cd78cd535e73ffffffffffffffffffffffffffffffffffffffff168173ffffffffffffffffffffffffffffffffffffffff1614156106b7576040517f08c379a00000000000000000000000000000000000000000000000000000000081526004018080602001828103825260098152602001807f4661696c6564507265000000000000000000000000000000000000000000000081526020015060200191505060405180910390fd5b505b92915050565b6000606060008c604051602001808273ffffffffffffffffffffffffffffffffffffffff1673ffffffffffffffffffffffffffffffffffffffff1681526020019150506040516020818303038152906040528191509150915061071d565b9b509b9950505050505050505050565b6000858560208110156107405760006000fd5b81019080803573ffffffffffffffffffffffffffffffffffffffff169060200190929190505050905073aca94ef8bd5ffee41947b4585a84bda5a3d3da6e73ffffffffffffffffffffffffffffffffffffffff168173ffffffffffffffffffffffffffffffffffffffff161415610822576040517f08c379a000000000000000000000000000000000000000000000000000000000815260040180806020018281038252600a8152602001807f4661696c6564506f73740000000000000000000000000000000000000000000081526020015060200191505060405180910390fd5b505b5050505050565b6108396108f063ffffffff16565b73ffffffffffffffffffffffffffffffffffffffff167faf3454daf35ed35aeed96f54dea42be40577a50924c122b26dc07fb3bf0c077e826040518080602001828103825283818151815260200191508051906020019080838360005b838110156108b25780820151818401525b602081019050610896565b50505050905090810190601f1680156108df5780820380516001836020036101000a031916815260200191505b509250505060405180910390a25b50565b6000600060009054906101000a900473ffffffffffffffffffffffffffffffffffffffff1673ffffffffffffffffffffffffffffffffffffffff163373ffffffffffffffffffffffffffffffffffffffff161415156109555733905061096b5661096a565b61096361096e63ffffffff16565b905061096b565b5b90565b600060606000368080601f016020809104026020016040519081016040528093929190818152602001838380828437600081840152601f19601f82011690508083019250505050505050905060006000369050905073ffffffffffffffffffffffffffffffffffffffff8183015116925082925050506109eb5650505b9056fea265627a7a72305820ce28def028343dbfaf2cdf4300f9d442a47d41839f8f0886c1570f28af4531ae64736f6c634300050a0032","compiler":{"name":"solc","version":"0.5.10+commit.5a6ea5b1.Linux.g++","optimizer":{},"evmVersion":"constantinople"}}