{"fileName":"Greeter.sol","contractName":"Greeter","source":"pragma solidity ^0.5.0;\n\nimport \"./IRelayRecipient.sol\";\nimport \"./GSNContext.sol\";\n\ncontract Greeter is IRelayRecipient, GSNContext {\n  event Greeted(address indexed greeter, string message);\n\n  function greet(string memory message) public {\n    emit Greeted(_msgSender(), message);\n  }\n\n  function acceptRelayedCall(\n      address,\n      address,\n      bytes calldata,\n      uint256,\n      uint256,\n      uint256,\n      uint256,\n      bytes calldata,\n      uint256\n  ) external view returns (uint256, bytes memory) {\n    return (0, \"\");\n  }\n\n  function preRelayedCall(bytes calldata context) external returns (bytes32) { }\n\n  function postRelayedCall(bytes calldata context, bool success, uint actualCharge, bytes32 preRetVal) external { }\n}","sourcePath":"contracts/Greeter.sol","abi":[{"constant":true,"inputs":[],"name":"getHubAddr","outputs":[{"name":"","type":"address"}],"payable":false,"stateMutability":"view","type":"function"},{"constant":false,"inputs":[{"name":"context","type":"bytes"}],"name":"preRelayedCall","outputs":[{"name":"","type":"bytes32"}],"payable":false,"stateMutability":"nonpayable","type":"function"},{"constant":true,"inputs":[{"name":"","type":"address"},{"name":"","type":"address"},{"name":"","type":"bytes"},{"name":"","type":"uint256"},{"name":"","type":"uint256"},{"name":"","type":"uint256"},{"name":"","type":"uint256"},{"name":"","type":"bytes"},{"name":"","type":"uint256"}],"name":"acceptRelayedCall","outputs":[{"name":"","type":"uint256"},{"name":"","type":"bytes"}],"payable":false,"stateMutability":"view","type":"function"},{"constant":false,"inputs":[{"name":"context","type":"bytes"},{"name":"success","type":"bool"},{"name":"actualCharge","type":"uint256"},{"name":"preRetVal","type":"bytes32"}],"name":"postRelayedCall","outputs":[],"payable":false,"stateMutability":"nonpayable","type":"function"},{"constant":false,"inputs":[{"name":"message","type":"string"}],"name":"greet","outputs":[],"payable":false,"stateMutability":"nonpayable","type":"function"},{"anonymous":false,"inputs":[{"indexed":true,"name":"greeter","type":"address"},{"indexed":false,"name":"message","type":"string"}],"name":"Greeted","type":"event"}],"bytecode":"0x608060405273537f27a04470242ff6b2c3ad247a05248d0d27ce600060006101000a81548173ffffffffffffffffffffffffffffffffffffffff021916908373ffffffffffffffffffffffffffffffffffffffff1602179055503480156100665760006000fd5b5061006c565b6106e78061007b6000396000f3fe60806040523480156100115760006000fd5b506004361061005c5760003560e01c806374e861d61461006257806380274db7146100ac57806383947ea014610147578063e06e0e2214610314578063ead710c4146103b75761005c565b60006000fd5b61006a61047a565b604051808273ffffffffffffffffffffffffffffffffffffffff1673ffffffffffffffffffffffffffffffffffffffff16815260200191505060405180910390f35b610129600480360360208110156100c35760006000fd5b81019080803590602001906401000000008111156100e15760006000fd5b8201836020820111156100f45760006000fd5b803590602001918460018302840111640100000000831117156101175760006000fd5b909192939090919293905050506104a9565b60405180826000191660001916815260200191505060405180910390f35b610291600480360361012081101561015f5760006000fd5b81019080803573ffffffffffffffffffffffffffffffffffffffff169060200190929190803573ffffffffffffffffffffffffffffffffffffffff169060200190929190803590602001906401000000008111156101bd5760006000fd5b8201836020820111156101d05760006000fd5b803590602001918460018302840111640100000000831117156101f35760006000fd5b90919293909091929390803590602001909291908035906020019092919080359060200190929190803590602001909291908035906020019064010000000081111561023f5760006000fd5b8201836020820111156102525760006000fd5b803590602001918460018302840111640100000000831117156102755760006000fd5b90919293909091929390803590602001909291905050506104b2565b6040518083815260200180602001828103825283818151815260200191508051906020019080838360005b838110156102d85780820151818401525b6020810190506102bc565b50505050905090810190601f1680156103055780820380516001836020036101000a031916815260200191505b50935050505060405180910390f35b6103b56004803603608081101561032b5760006000fd5b81019080803590602001906401000000008111156103495760006000fd5b82018360208201111561035c5760006000fd5b8035906020019184600183028401116401000000008311171561037f5760006000fd5b909192939090919293908035151590602001909291908035906020019092919080356000191690602001909291905050506104e7565b005b610478600480360360208110156103ce5760006000fd5b81019080803590602001906401000000008111156103ec5760006000fd5b8201836020820111156103ff5760006000fd5b803590602001918460018302840111640100000000831117156104225760006000fd5b91908080601f016020809104026020016040519081016040528093929190818152602001838380828437600081840152601f19601f820116905080830192505050505050509090919290909192905050506104ef565b005b6000600060009054906101000a900473ffffffffffffffffffffffffffffffffffffffff1690506104a6565b90565b60005b92915050565b60006060600080905060405180602001604052806000815260200150915091506104d7565b9b509b9950505050505050505050565b5b5050505050565b6104fd6105b463ffffffff16565b73ffffffffffffffffffffffffffffffffffffffff167faf3454daf35ed35aeed96f54dea42be40577a50924c122b26dc07fb3bf0c077e826040518080602001828103825283818151815260200191508051906020019080838360005b838110156105765780820151818401525b60208101905061055a565b50505050905090810190601f1680156105a35780820380516001836020036101000a031916815260200191505b509250505060405180910390a25b50565b6000600060009054906101000a900473ffffffffffffffffffffffffffffffffffffffff1673ffffffffffffffffffffffffffffffffffffffff163373ffffffffffffffffffffffffffffffffffffffff161415156106195733905061062f5661062e565b61062761063263ffffffff16565b905061062f565b5b90565b600060606000368080601f016020809104026020016040519081016040528093929190818152602001838380828437600081840152601f19601f82011690508083019250505050505050905060006000369050905073ffffffffffffffffffffffffffffffffffffffff8183015116925082925050506106af5650505b9056fea265627a7a72305820c2686c0afbd38e62931bd0326eb7b1c55f5a8e5ecf1134d513ea7ec4f3fcc78c64736f6c634300050a0032","compiler":{"name":"solc","version":"0.5.10+commit.5a6ea5b1.Linux.g++","optimizer":{},"evmVersion":"constantinople"}}