{"fileName":"GSNContext.sol","contractName":"GSNContext","source":"pragma solidity ^0.5.0;\n\n/*\n * @dev Enables GSN support by recognizing calls from RelayHub and extracting\n * the actual sender and call data from the received values.\n *\n * Copied from @openzeppelin/contracts\n */\ncontract GSNContext {\n    address private _relayHub = 0x537F27a04470242ff6b2c3ad247A05248d0d27CE;\n\n    // Currently required by the RelayProvider\n    function getHubAddr() public view returns (address) {\n        return _relayHub;\n    }\n\n    // Overrides for Context's functions: when called from RelayHub, sender and\n    // data require some pre-processing: the actual sender is stored at the end\n    // of the call data, which in turns means it needs to be removed from it\n    // when handling said data.\n\n    function _msgSender() internal view returns (address) {\n        if (msg.sender != _relayHub) {\n            return msg.sender;\n        } else {\n            return _getRelayedCallSender();\n        }\n    }\n\n    function _msgData() internal view returns (bytes memory) {\n        if (msg.sender != _relayHub) {\n            return msg.data;\n        } else {\n            return _getRelayedCallData();\n        }\n    }\n\n    function _getRelayedCallSender() private pure returns (address result) {\n        // We need to read 20 bytes (an address) located at array index msg.data.length - 20. In memory, the array\n        // is prefixed with a 32-byte length value, so we first add 32 to get the memory read index. However, doing\n        // so would leave the address in the upper 20 bytes of the 32-byte word, which is inconvenient and would\n        // require bit shifting. We therefore subtract 12 from the read index so the address lands on the lower 20\n        // bytes. This can always be done due to the 32-byte prefix.\n\n        // The final memory read index is msg.data.length - 20 + 32 - 12 = msg.data.length. Using inline assembly is the\n        // easiest/most-efficient way to perform this operation.\n\n        // These fields are not accessible from assembly\n        bytes memory array = msg.data;\n        uint256 index = msg.data.length;\n\n        // solhint-disable-next-line no-inline-assembly\n        assembly {\n            // Load the 32 bytes word from memory with the address on the lower 20 bytes, and mask those.\n            result := and(mload(add(array, index)), 0xffffffffffffffffffffffffffffffffffffffff)\n        }\n        return result;\n    }\n\n    function _getRelayedCallData() private pure returns (bytes memory) {\n        // RelayHub appends the sender address at the end of the calldata, so in order to retrieve the actual msg.data,\n        // we must strip the last 20 bytes (length of an address type) from it.\n\n        uint256 actualDataLength = msg.data.length - 20;\n        bytes memory actualData = new bytes(actualDataLength);\n\n        for (uint256 i = 0; i < actualDataLength; ++i) {\n            actualData[i] = msg.data[i];\n        }\n\n        return actualData;\n    }\n}","sourcePath":"contracts/GSNContext.sol","abi":[{"constant":true,"inputs":[],"name":"getHubAddr","outputs":[{"name":"","type":"address"}],"payable":false,"stateMutability":"view","type":"function"}],"bytecode":"0x608060405273537f27a04470242ff6b2c3ad247a05248d0d27ce600060006101000a81548173ffffffffffffffffffffffffffffffffffffffff021916908373ffffffffffffffffffffffffffffffffffffffff1602179055503480156100665760006000fd5b5061006c565b60dd8061007a6000396000f3fe608060405234801560105760006000fd5b5060043610602c5760003560e01c806374e861d614603257602c565b60006000fd5b6038607a565b604051808273ffffffffffffffffffffffffffffffffffffffff1673ffffffffffffffffffffffffffffffffffffffff16815260200191505060405180910390f35b6000600060009054906101000a900473ffffffffffffffffffffffffffffffffffffffff16905060a5565b9056fea265627a7a72305820493e0043097e88fcaf8148847f468e525e1ac70c6ea90bc81be08d1ee017e92c64736f6c634300050a0032","compiler":{"name":"solc","version":"0.5.10+commit.5a6ea5b1.Linux.g++","optimizer":{},"evmVersion":"constantinople"}}