{"fileName":"Greeter.sol","contractName":"VanillaGreeter","source":"pragma solidity ^0.5.0;\n\nimport \"./IRelayRecipient.sol\";\nimport \"./GSNContext.sol\";\n\ncontract VanillaGreeter {\n  event Greeted(address indexed greeter, string message);\n\n  function greet(string memory message) public payable {\n    emit Greeted(msg.sender, message);\n  }\n}\n\ncontract Greeter is IRelayRecipient, GSNContext, VanillaGreeter {\n  address constant FAILS_PRE =  0x28a8746e75304c0780E011BEd21C72cD78cd535E;\n  address constant FAILS_POST = 0xACa94ef8bD5ffEE41947b4585a84BdA5a3d3DA6E;\n\n  event PostGreet(address from, bytes approveData);\n\n  function greet(string memory message) public payable {\n    // Play around with msg data to increase gas consumption if sent as meta tx\n    bytes memory data = _msgData();\n    require(data.length > 0);\n\n    emit Greeted(_msgSender(), message);\n  }\n\n  function greetFrom(address sender, string memory message) public payable {\n    require(sender == _msgSender());\n    greet(message);\n  }\n\n  function reverts() public {\n    emit Greeted(_msgSender(), \"Error\");\n    revert(\"GreetingError\");\n  }\n\n  function acceptRelayedCall(\n      address,\n      address from,\n      bytes calldata,\n      uint256,\n      uint256,\n      uint256,\n      uint256,\n      bytes calldata approveData,\n      uint256\n  ) external view returns (uint256, bytes memory) {\n    return (0, abi.encode(from, approveData));\n  }\n\n  function preRelayedCall(bytes calldata context) external returns (bytes32) { \n    (address from,) = abi.decode(context, (address, bytes));\n    if (from == FAILS_PRE) revert(\"FailedPre\");\n  }\n\n  function postRelayedCall(bytes calldata context, bool, uint, bytes32) external { \n    (address from, bytes memory approveData) = abi.decode(context, (address, bytes));\n    if (from == FAILS_POST) revert(\"FailedPost\");\n    emit PostGreet(from, approveData);\n  }\n\n  function setHub(address hub) external {\n    _upgradeRelayHub(hub);\n  }\n}\n\ncontract RejectfulGreeter is Greeter {\n  function acceptRelayedCall(\n      address,\n      address,\n      bytes calldata,\n      uint256,\n      uint256,\n      uint256,\n      uint256,\n      bytes calldata,\n      uint256\n  ) external view returns (uint256, bytes memory) {\n    return (20, \"\");\n  }\n}","sourcePath":"contracts/Greeter.sol","abi":[{"constant":false,"inputs":[{"name":"message","type":"string"}],"name":"greet","outputs":[],"payable":true,"stateMutability":"payable","type":"function"},{"anonymous":false,"inputs":[{"indexed":true,"name":"greeter","type":"address"},{"indexed":false,"name":"message","type":"string"}],"name":"Greeted","type":"event"}],"bytecode":"0x60806040523480156100115760006000fd5b50610017565b6101d8806100266000396000f3fe6080604052600436106100225760003560e01c8063ead710c41461002857610022565b60006000fd5b6100e96004803603602081101561003f5760006000fd5b810190808035906020019064010000000081111561005d5760006000fd5b8201836020820111156100705760006000fd5b803590602001918460018302840111640100000000831117156100935760006000fd5b91908080601f016020809104026020016040519081016040528093929190818152602001838380828437600081840152601f19601f820116905080830192505050505050509090919290909192905050506100eb565b005b3373ffffffffffffffffffffffffffffffffffffffff167faf3454daf35ed35aeed96f54dea42be40577a50924c122b26dc07fb3bf0c077e826040518080602001828103825283818151815260200191508051906020019080838360005b838110156101655780820151818401525b602081019050610149565b50505050905090810190601f1680156101925780820380516001836020036101000a031916815260200191505b509250505060405180910390a25b5056fea265627a7a72305820a9d82857a4f33c9f01fea3346c51c9383a5c82bd3bc5a9246ece84240d09f6da64736f6c634300050a0032","compiler":{"name":"solc","version":"0.5.10+commit.5a6ea5b1.Linux.g++","optimizer":{},"evmVersion":"constantinople"}}